S01B0000437573746F6D4F707469626F6F7433323870622E73726563CF
S1137C000C945A3E0C94383F0C94383F0C94383FF3
S1137C100C94383F0C94383F0C94383F0C94383F04
S1137C200C94383F0C94383F0C94383F0C94383FF4
S1137C300C94383F0C94383F0C94383F0C94383FE4
S1137C400C94383F0C94383F0C94383F0C94383FD4
S1137C500C94383F0C94383F0C94383F0C94383FC4
S1137C600C94383F0C94383F0C94383F0C94383FB4
S1137C700C94383F0C94383F0C94383F0C94383FA4
S1137C800C94383F0C94383F0C94383F0C94383F94
S1137C900C94383F0C94383F0C94383F0C94383F84
S1137CA00C94383F0C94383F0C94383F0C94383F74
S1137CB00C94383F11241FBECFEFD8E0DEBFCDBFF8
S1137CC011E0A0E0B1E0ECEFFFE702C005900D92F7
S1137CD0A230B107D9F721E0A2E0B1E001C01D92C2
S1137CE0A330B207E1F701C077C10E94793E0C943A
S1137CF0FC3F0E946B3F112484B7882369F0982FBE
S1137D009A70923049F081FF02C097EF94BF282EF9
S1137D1080E00E94653F73C182E08093C00088E1E7
S1137D208093C10086E08093C20080E190E090934C
S1137D30C5008093C4008EE00E94653F93E0E92E65
S1137D40DD24D39425E0C22E31E1B32E0E94593FA5
S1137D50813489F40E94593F182F0E94D83F123869
S1137D6011F481E005C0113811F488E001C083E00A
S1137D700E94523F79C0823411F484E103C08534F7
S1137D8021F485E00E94E33F6FC0853549F40E94E9
S1137D90593FC82F0E94593FD82FCC0FDD1F62C016
S1137DA0863529F484E00E94E33F80E0E1CF843605
S1137DB009F032C00E94593F0E94593FF82E0E9498
S1137DC0593FA82E00E011E00E94593FF801819329
S1137DD08F01FE12F9CF0E94D83FF5E4AF1201C023
S1137DE0FFCFFE01E7BEE89507B600FCFDCFA0E09B
S1137DF0B1E0FE018D919D910C01D7BEE89511244F
S1137E003296FA12F7CFFE01C7BEE89507B600FC1A
S1137E10FDCFB7BEE89528C0843799F40E94593F36
S1137E200E94593FF82E0E94593F0E94D83F8E016C
S1137E30F80185918F010E94523FFA94F110F8CF16
S1137E4013C0853751F40E94D83F8EE10E94523FFF
S1137E5085E90E94523F86E18BCF813519F488E091
S1137E600E94653F0E94D83F80E10E94523F6ECF3E
S1137E700C94003E29E535EE3A95F1F72A95E1F7A1
S1137E80089529E03EEE40EB4A95F1F73A95E1F783
S1137E902A95D1F7089526E031ED3A95F1F72A9520
S1137EA0E1F708959091C00095FFFCCF8093C60040
S1137EB008958091C00087FFFCCF8091C00084FDAD
S1137EC001C0A8958091C6000895E0E6F0E098E12D
S1137ED0908380830895CF93DF93639966C0619BF9
S1137EE064C0699A719880E00E94653F6B9A7398A8
S1137EF00E94413F0E943A3F699851984899FECFA9
S1137F0081E080930201C8EED3E0489B47C0809192
S1137F100201882309F446C0809100019091010177
S1137F20009731F0019790930101809300013AC0CA
S1137F30D0930101C093000180910001909101014F
S1137F409C01215031093093010120930001892BB8
S1137F5019F00E943A3FF0CF6B980E944B3F699A08
S1137F6071980E94413F519A599A6998D09301019E
S1137F70C093000180910001909101019C01215066
S1137F8031093093010120930001892B19F00E94DB
S1137F904B3FF0CF8CE00E94653F04C0D0930101B9
S1137FA0C09300010E943A3FB0CFDF91CF91089572
S1137FB00E94593F803221F088E00E94653FFFCF44
S1137FC084E10C94523FCF93C82F0E94593FC15073
S1137FD0E1F7CF910C94D83FFC010A0167BFE89503
S1137FE0112407B600FCFDCF667029F0452B19F467
S10F7FF081E187BFE8950895F894FFCF65
S1057FFCE80394
S9037C0080
